{
  "address": "0x4740bA454D93EB867fe23AC2E4Cd803a0307049f",
  "abi": [
    {
      "inputs": [],
      "stateMutability": "nonpayable",
      "type": "constructor"
    },
    {
      "inputs": [
        {
          "internalType": "address",
          "name": "_addr",
          "type": "address"
        }
      ],
      "name": "checkMembership",
      "outputs": [
        {
          "internalType": "bool",
          "name": "",
          "type": "bool"
        }
      ],
      "stateMutability": "view",
      "type": "function"
    },
    {
      "inputs": [],
      "name": "getVotes",
      "outputs": [
        {
          "components": [
            {
              "internalType": "string",
              "name": "name",
              "type": "string"
            },
            {
              "internalType": "string",
              "name": "description",
              "type": "string"
            },
            {
              "internalType": "address",
              "name": "proposal",
              "type": "address"
            },
            {
              "internalType": "bool",
              "name": "hasVoted",
              "type": "bool"
            }
          ],
          "internalType": "struct DistrictManager.VoteInfo[]",
          "name": "",
          "type": "tuple[]"
        }
      ],
      "stateMutability": "view",
      "type": "function"
    },
    {
      "inputs": [],
      "name": "ping",
      "outputs": [
        {
          "internalType": "string",
          "name": "",
          "type": "string"
        }
      ],
      "stateMutability": "pure",
      "type": "function"
    },
    {
      "inputs": [
        {
          "internalType": "address[]",
          "name": "_members",
          "type": "address[]"
        }
      ],
      "name": "restartDemo",
      "outputs": [],
      "stateMutability": "nonpayable",
      "type": "function"
    }
  ],
  "transactionHash": "0xdd16d4709a57be715ab37bbc79b76ad0244f8aa29ada1093289983b041a1ea17",
  "args": [],
  "numDeployments": 11,
  "solcInputHash": "2049ac91962097d4682c716101825e62",
  "bytecode": "0x608060405234801561001057600080fd5b5061101b806100206000396000f3fe608060405234801561001057600080fd5b506004361061004c5760003560e01c80630dc9601514610051578063367a66ac1461006f5780635c36b186146100845780635fb64fd6146100ab575b600080fd5b6100596100e7565b6040516100669190610868565b60405180910390f35b61008261007d366004610940565b6103c4565b005b604080518082018252600581526468656c6c6f60d81b602082015290516100669190610a05565b6100d76100b9366004610a1f565b6001600160a01b031660009081526020819052604090205460ff1690565b6040519015158152602001610066565b60025460609060009067ffffffffffffffff8111156101085761010861090e565b60405190808252806020026020018201604052801561015d57816020015b6040805160808101825260608082526020820181905260009282018390528101919091528152602001906001900390816101265790505b50905060005b60025460ff821610156103be57600060028260ff168154811061018857610188610a3a565b90600052602060002090600302019050806040518060800160405290816000820180546101b490610a50565b80601f01602080910402602001604051908101604052809291908181526020018280546101e090610a50565b801561022d5780601f106102025761010080835404028352916020019161022d565b820191906000526020600020905b81548152906001019060200180831161021057829003601f168201915b5050505050815260200160018201805461024690610a50565b80601f016020809104026020016040519081016040528092919081815260200182805461027290610a50565b80156102bf5780601f10610294576101008083540402835291602001916102bf565b820191906000526020600020905b8154815290600101906020018083116102a257829003601f168201915b5050509183525050600291909101546001600160a01b038116602083015260ff600160a01b9091048116151560409092019190915284518591851690811061030957610309610a3a565b602090810291909101015260028101546040516304f77a1f60e11b81523360048201526001600160a01b03909116906309eef43e90602401602060405180830381865afa15801561035e573d6000803e3d6000fd5b505050506040513d601f19601f820116820180604052508101906103829190610a84565b838360ff168151811061039757610397610a3a565b602090810291909101015190151560609091015250806103b681610abc565b915050610163565b50919050565b60005b60015460ff8216101561043557600080600060018460ff16815481106103ef576103ef610a3a565b6000918252602080832091909101546001600160a01b031683528201929092526040019020805460ff19169115159190911790558061042d81610abc565b9150506103c7565b5061044260016000610746565b61044e60026000610764565b60005b81518160ff16101561051a576001600080848460ff168151811061047757610477610a3a565b60200260200101516001600160a01b03166001600160a01b0316815260200190815260200160002060006101000a81548160ff0219169083151502179055506001828260ff16815181106104cd576104cd610a3a565b60209081029190910181015182546001810184556000938452919092200180546001600160a01b0319166001600160a01b039092169190911790558061051281610abc565b915050610451565b506105816040518060400160405280601c81526020017f4368616e6765207765627369746520636f6c6f7220746f20626c7565000000008152506040518060600160405280602d8152602001610fb9602d913961057a4262127500610adb565b60016105ea565b6105e76040518060400160405280601f81526020017f4368616e67652044414f206e616d652056696e63656e742056616e2044616f008152506040518060600160405280602b8152602001610f8e602b91396105e04262127500610adb565b60006105ea565b50565b600060ff8216156105fb578161060a565b60015461060a90600290610af4565b90506106426040518060800160405280606081526020016060815260200160006001600160a01b031681526020016000151581525090565b8581526020810185905260405184903090849061065e90610785565b9283526001600160a01b03909116602083015260ff166040820152606001604051809103906000f080158015610698573d6000803e3d6000fd5b506001600160a01b0316604082015260028054600181018255600091909152815182916003027f405787fa12a823e0f2b7631cc41b3ba8828b3321ca811111fa75cd3aa3bb5ace019081906106ed9082610b73565b50602082015160018201906107029082610b73565b506040820151600290910180546060909301511515600160a01b026001600160a81b03199093166001600160a01b0390921691909117919091179055505050505050565b50805460008255906000526020600020908101906105e79190610792565b50805460008255600302906000526020600020908101906105e791906107ab565b61035a80610c3483390190565b5b808211156107a75760008155600101610793565b5090565b808211156107a75760006107bf82826107e8565b6107cd6001830160006107e8565b506002810180546001600160a81b03191690556003016107ab565b5080546107f490610a50565b6000825580601f10610804575050565b601f0160209004906000526020600020908101906105e79190610792565b6000815180845260005b818110156108485760208185018101518683018201520161082c565b506000602082860101526020601f19601f83011685010191505092915050565b60006020808301818452808551808352604092508286019150828160051b87010184880160005b8381101561090057603f198984030185528151608081518186526108b582870182610822565b915050888201518582038a8701526108cd8282610822565b838a01516001600160a01b0316878b0152606093840151151593909601929092525050938601939086019060010161088f565b509098975050505050505050565b634e487b7160e01b600052604160045260246000fd5b80356001600160a01b038116811461093b57600080fd5b919050565b6000602080838503121561095357600080fd5b823567ffffffffffffffff8082111561096b57600080fd5b818501915085601f83011261097f57600080fd5b8135818111156109915761099161090e565b8060051b604051601f19603f830116810181811085821117156109b6576109b661090e565b6040529182528482019250838101850191888311156109d457600080fd5b938501935b828510156109f9576109ea85610924565b845293850193928501926109d9565b98975050505050505050565b602081526000610a186020830184610822565b9392505050565b600060208284031215610a3157600080fd5b610a1882610924565b634e487b7160e01b600052603260045260246000fd5b600181811c90821680610a6457607f821691505b6020821081036103be57634e487b7160e01b600052602260045260246000fd5b600060208284031215610a9657600080fd5b81518015158114610a1857600080fd5b634e487b7160e01b600052601160045260246000fd5b600060ff821660ff8103610ad257610ad2610aa6565b60010192915050565b80820180821115610aee57610aee610aa6565b92915050565b600060ff831680610b1557634e487b7160e01b600052601260045260246000fd5b8060ff84160491505092915050565b601f821115610b6e57600081815260208120601f850160051c81016020861015610b4b5750805b601f850160051c820191505b81811015610b6a57828155600101610b57565b5050505b505050565b815167ffffffffffffffff811115610b8d57610b8d61090e565b610ba181610b9b8454610a50565b84610b24565b602080601f831160018114610bd65760008415610bbe5750858301515b600019600386901b1c1916600185901b178555610b6a565b600085815260208120601f198616915b82811015610c0557888601518255948401946001909101908401610be6565b5085821015610c235787850151600019600388901b60f8161c191681555b5050505050600190811b0190555056fe608060405234801561001057600080fd5b5060405161035a38038061035a83398101604081905261002f91610073565b600180546000949094556001600160a81b0319909316600160a01b60ff92909216919091026001600160a01b031916176001600160a01b03919091161790556100c9565b60008060006060848603121561008857600080fd5b835160208501519093506001600160a01b03811681146100a757600080fd5b604085015190925060ff811681146100be57600080fd5b809150509250925092565b610282806100d86000396000f3fe608060405234801561001057600080fd5b50600436106100365760003560e01c806309eef43e1461003b578063d64ee2381461007b575b600080fd5b6100676100493660046101a4565b6001600160a01b031660009081526002602052604090205460ff1690565b604051901515815260200160405180910390f35b6100676100893660046101e5565b600154604051632fdb27eb60e11b81523360048201526000916001600160a01b031690635fb64fd690602401602060405180830381865afa1580156100d2573d6000803e3d6000fd5b505050506040513d601f19601f820116820180604052508101906100f69190610202565b6100ff57600080fd5b60005442111561010e57600080fd5b3360009081526002602052604090205460ff161561012b57600080fd5b81151560009081526003602052604090205461014b9060ff16600161021f565b9115156000818152600360208181526040808420805460ff98891660ff1991821617825533865260028452918520805490921660019081179092559054949093525254600160a01b909104831692169190911015919050565b6000602082840312156101b657600080fd5b81356001600160a01b03811681146101cd57600080fd5b9392505050565b80151581146101e257600080fd5b50565b6000602082840312156101f757600080fd5b81356101cd816101d4565b60006020828403121561021457600080fd5b81516101cd816101d4565b60ff818116838216019081111561024657634e487b7160e01b600052601160045260246000fd5b9291505056fea264697066735822122059a66bcb31eac181e87d1226376449402eb60eaf394436c3834b19df2ff6fbe264736f6c6343000811003350656f706c65206c696b652070756e73206d6f7265207468616e2074686579206c696b65207268796d6573546865206261636b67726f756e6420697320617766756c3b206c65742773206d616b6520697420626574746572a26469706673582212203f9a4cb22312e66e980a9bd0dc2adc799137b2fd6da228a20ef7e10c473cb23364736f6c63430008110033",
  "devdoc": {
    "kind": "dev",
    "methods": {},
    "version": 1
  },
  "userdoc": {
    "kind": "user",
    "methods": {},
    "version": 1
  },
  "storageLayout": {
    "storage": [
      {
        "astId": 131,
        "contract": "contracts/Proposal.sol:DistrictManager",
        "label": "membership",
        "offset": 0,
        "slot": "0",
        "type": "t_mapping(t_address,t_bool)"
      },
      {
        "astId": 134,
        "contract": "contracts/Proposal.sol:DistrictManager",
        "label": "members",
        "offset": 0,
        "slot": "1",
        "type": "t_array(t_address)dyn_storage"
      },
      {
        "astId": 138,
        "contract": "contracts/Proposal.sol:DistrictManager",
        "label": "votes",
        "offset": 0,
        "slot": "2",
        "type": "t_array(t_struct(VoteInfo)127_storage)dyn_storage"
      }
    ],
    "types": {
      "t_address": {
        "encoding": "inplace",
        "label": "address",
        "numberOfBytes": "20"
      },
      "t_array(t_address)dyn_storage": {
        "base": "t_address",
        "encoding": "dynamic_array",
        "label": "address[]",
        "numberOfBytes": "32"
      },
      "t_array(t_struct(VoteInfo)127_storage)dyn_storage": {
        "base": "t_struct(VoteInfo)127_storage",
        "encoding": "dynamic_array",
        "label": "struct DistrictManager.VoteInfo[]",
        "numberOfBytes": "32"
      },
      "t_bool": {
        "encoding": "inplace",
        "label": "bool",
        "numberOfBytes": "1"
      },
      "t_mapping(t_address,t_bool)": {
        "encoding": "mapping",
        "key": "t_address",
        "label": "mapping(address => bool)",
        "numberOfBytes": "32",
        "value": "t_bool"
      },
      "t_string_storage": {
        "encoding": "bytes",
        "label": "string",
        "numberOfBytes": "32"
      },
      "t_struct(VoteInfo)127_storage": {
        "encoding": "inplace",
        "label": "struct DistrictManager.VoteInfo",
        "members": [
          {
            "astId": 120,
            "contract": "contracts/Proposal.sol:DistrictManager",
            "label": "name",
            "offset": 0,
            "slot": "0",
            "type": "t_string_storage"
          },
          {
            "astId": 122,
            "contract": "contracts/Proposal.sol:DistrictManager",
            "label": "description",
            "offset": 0,
            "slot": "1",
            "type": "t_string_storage"
          },
          {
            "astId": 124,
            "contract": "contracts/Proposal.sol:DistrictManager",
            "label": "proposal",
            "offset": 0,
            "slot": "2",
            "type": "t_address"
          },
          {
            "astId": 126,
            "contract": "contracts/Proposal.sol:DistrictManager",
            "label": "hasVoted",
            "offset": 20,
            "slot": "2",
            "type": "t_bool"
          }
        ],
        "numberOfBytes": "96"
      }
    }
  }
}